:10000000BAC0D4C0D3C0D2C0D1C0D0C0CFC0CEC07F
:10001000F4C3CCC0CBC0CAC0C9C0C8C0C7C0C6C06A
:10002000C5C0C4C0C3C0B6C3BAC3B9C3B8C3B7C3DD
:10003000B6C3B5C3B4C3B3C3B2C3B1C3B0C3AFC314
:10004000AEC3ADC3ACC3ABC3AAC3A9C3A8C3A7C344
:10005000A6C3A5C3A4C3A3C3A2C3A1C3A0C39FC374
:1000600076C3F7C216C39BC381C399C398C397C312
:1000700096C395C394C393C392C391C390C38FC3D4
:100080008EC37EC38CC32DC38AC389C344C387C3B5
:1000900086C385C384C383C382C381C380C37FC334
:1000A00047C3D7C2E0C27BC361C379C378C377C3F8
:1000B00076C375C374C373C372C371C370C36FC394
:1000C0006EC35EC36CC300C36AC369C317C362C394
:1000D00066C365C364C363C362C361C360C35FC3F4
:1000E0005EC35DC35CC35BC35AC359C358C357C324
:1000F00056C355C354C353C352C351C350C34FC354
:100100004EC34DC34CC34BC353C3A3C2C1C247C3A9
:100110002DC345C344C343C342C341C340C33FC3CC
:100120003EC33DC33CC33BC33AC32AC338C3D8C252
:1001300036C335C3EFC233C332C331C330C32FC359
:100140002EC32DC32CC32BC3F2C283C28BC227C3C1
:100150000DC325C324C323C322C321C320C31FC38C
:100160001EC31DC31CC31BC31AC30AC318C3ABC21F
:1001700016C315C3C2C211241FBECFE5D4E0DEBF33
:10018000CDBF12E0A0E6B0E0E6E7F1E102C00590E5
:100190000D92A236B107D9F722E0A2E6B2E001C083
:1001A0001D92A637B207E1F70ED5E3C729CF81B17B
:1001B0008C7F81B988E980B908958093730286B7EE
:1001C000846A86BF06B607FEFDCF81B1887F88307E
:1001D00021F0803111F08EEF08958FEF0895880F90
:1001E00090917302892B83B986B78F7D86BF86B7BE
:1001F000806886BF06B607FEFDCF8091730281112D
:1002000006C081B1887F883151F08EEF089581302A
:1002100041F481B1887F803431F08EEF08958FEF03
:10022000089580E008958FEF0895CF93C82F80E060
:10023000C4DF8C2FD4DFCF91089583B986B780684F
:1002400086BF06B607FEFDCF81B1887F883211F0E8
:100250008EEF08958FEF089586B7806986BF06B642
:1002600004FEFDCF0895CF93C82F8CE3DEDF80E03E
:10027000E4DF8C2FE2DFF0DFCF910895CF93DF939F
:1002800081E2F1DF80E0EFDF8FE7EDDF82E2EBDF9D
:1002900080E0E9DF87E0E7DF8CE3C7DF80E4CDDFE4
:1002A000C0E0D4E080E0C9DF2197E1F781E2DBDF45
:1002B00080E0D9DF8FE7D7DF82E2D5DF80E0D3DFD0
:1002C00087E0D1DF8CE3B1DF80E4B7DFDF91CF914E
:1002D00008956DDF8EEAC7DF85EDC5DF80E8C3DFF7
:1002E00088EAC1DF8FE3BFDF83EDBDDF80E0BBDFE6
:1002F00080E4B9DF8DE8B7DF84E1B5DF80E2B3DF0A
:1003000080E0B1DF81EAAFDF88ECADDF8AEDABDF03
:1003100082E1A9DF81E8A7DF8FECA5DF89EDA3DF0C
:1003200081EFA1DF8BED9FDF80E49DDF84EA9BDF1F
:1003300086EA99DF8FEA97DFA1DF0895CF93DF93F5
:100340008830C0F46623B4F0D62FC82F809374028F
:100350006093750281E287DF8D2F85DF8FE783DF72
:1003600082E281DF8C2F7FDF87E07DDF8CE35DDF42
:1003700080E463DFDF91CF910895809174028F5FF5
:1003800087708093740260E0D9DF08951F93CF9344
:10039000DF93C82F8091750290E005968038910513
:1003A0001CF4CA3021F421C0E8DFCA30F9F0C05291
:1003B000D0E0CE01880F991F880F991FC80FD91F51
:1003C000CA57DF4F10E0899138DF809175028F5F47
:1003D000809375021F5F1530B1F780E02EDF8091AA
:1003E00075028F5F8093750201C0C7DFDF91CF91E7
:1003F0001F910895CF93DF93EC018881882329F022
:100400002196C4DF89918111FCCFDF91CF910895AE
:100410004F925F926F927F928F929F92AF92BF9214
:10042000CF92DF92EF92FF920F931F93CF93DF93C0
:10043000CDB7DEB72A970FB6F894DEBF0FBECDBF9B
:10044000882E6A017B01122F82E0881223C02223AA
:1004500009F46AC0AA24A394B12C01E0912C8FEF77
:10046000810FA50102C0440F551F8A95E2F7052EA2
:10047000000C660B770B4C215D216E217F21802FB4
:10048000452B462B472B09F4892D805D7FDF1150CA
:1004900031F74AC0452B462B472B19F021110DC0CF
:1004A00043C0222309F440C000E080E36FDF0F5F08
:1004B0000117D1F10A30C9F737C0FE0131965F014B
:1004C00000E0482C512C612C712CC114D104E104A2
:1004D000F10481F09C2CC701B601A301920113D64F
:1004E000C22ED32EE42EF52E829E90181124F501F3
:1004F000908208C01B3020F0102F011109C014C0D9
:10050000F50110820F5FFFEFAF1ABF0A0113DDCFB5
:10051000FE01E10FF11D80818A3010F0895C01C07D
:10052000805D34DF1150A1F72A960FB6F894DEBF34
:100530000FBECDBFDF91CF911F910F91FF90EF9034
:10054000DF90CF90BF90AF909F908F907F906F90F3
:100550005F904F9008958F929F92AF92BF92CF92EB
:10056000DF92EF92FF926B017C019DD44B015C0105
:100570002FEFAB01BC018AE04BDF8EE207DFC50144
:10058000B401BDD49B01AC01C701B60127D420E062
:1005900034E244E759E441D586D4AB01BC012FEFE6
:1005A0008AE036DFFF90EF90DF90CF90BF90AF9062
:1005B0009F908F9008954F925F926F927F928F924B
:1005C0009F92AF92BF92CF92DF92EF92FF920F93E2
:1005D0001F93CF93DF93CDB7DEB7FE017396819063
:1005E00091907F01D4018C91882309F4F5C068941F
:1005F000AA24A4F8BB24BA9400E0853209F0CDC047
:100600006401BFEFCB1ADB0AD4011196EC9111976C
:1006100080ED8E0F8A3008F0D5C01296102F212F52
:10062000220F922F990F990F290F2053122F1E0F6F
:100630006D01ED9180ED8E0F8A3088F34E2F50E0E2
:10064000FA01B597E435F10508F0A9C0ED5EFF4F5A
:1006500009944701B2E08B0E911CF701808196DE70
:1006600074019DC01B2DF70180809180F2E0EF0E98
:10067000F11C99202CF49194819491088DE286DEEE
:10068000A401990C660B770B212F8AE0C1DE87C08D
:100690001B2DF701408051806280738024E0E20EC0
:1006A000F11C772054F47094609450944094411C51
:1006B000511C611C711C8DE269DE212FB301A20166
:1006C0008AE0A6DE6CC01B2DF7014081518182E0DB
:1006D000E80EF11C60E070E0212F8AE099DE5FC037
:1006E0001B2DF701408151816281738194E0E90EF5
:1006F000F11C212F8AE08CDE52C01B2DF7014081B6
:100700005181A2E0EA0EF11C60E070E0212F8A2DF9
:100710007FDE45C01B2DF7014081518162817381CD
:10072000B4E0EB0EF11C212F8A2D72DE38C01B2D98
:10073000F70140815181E2E0EE0EF11C1F3F09F408
:100740001A2D60E070E0212F82E062DE28C0F70100
:100750004081518162817381F4E0EF0EF11C1F3FF3
:1007600009F41A2D212F82E053DE19C0F7016081B0
:1007700071818281938124E0E20EF11CECDE0FC0D6
:10078000470182E0880E911CD7018D919C9132DE49
:10079000740105C085E2FADD02C0F8DD640146019E
:1007A000BFEF8B1A9B0AF6018181811126CF14C0FD
:1007B000D7014D915D916D917C91F70134967F0148
:1007C0001A2DD0CF4E2F50E0FA01B597E435F10540
:1007D00030F7E959FF4F0994DF91CF911F910F91A5
:1007E000FF90EF90DF90CF90BF90AF909F908F9051
:1007F0007F906F905F904F9008951F920F920FB669
:100800000F9211248F9380917202813029F480918C
:1008100070028F5F8093700280917102813029F4A1
:1008200080916D028F5F80936D02809170028C3396
:1008300038F080916F028F5F80936F021092700288
:1008400080916D028C3338F080916C028F5F8093C1
:100850006C0210926D0280916F028C3338F080919F
:100860006E028F5F80936E0210926F0280916C0215
:100870008C3338F080916B028F5F80936B02109203
:100880006C0281EE8DBD8CE78CBD8F910F900FBEF9
:100890000F901F901895CF93DF934091690280913C
:1008A0006A0220916E0230916F0290E0BC01ECE38D
:1008B0004E9F600D711D1124AB0164EC6203C001F9
:1008C0001124831B9109840F951F909365028093D7
:1008D00064026CE383E032DD8091640290916502F2
:1008E000CCE3D0E0BE01FCD3AB01770F660B770BF6
:1008F00022E08AE08DDD6EE483E020DD80916402F9
:1009000090916502BE01ECD3AC01990F660B770B99
:1009100022E08AE07DDD60E683E010DD80917002F8
:10092000AE01481B5109052E000C660B770B22E027
:100930008AE06EDDDF91CF910895CF93DF934091F0
:1009400067028091680220916B0230916C0290E006
:10095000BC01ECE34E9F600D711D1124AB0164ECF2
:100960006203C0011124831B9109840F951F90938A
:100970006302809362026CE385E0E0DC80916202B6
:1009800090916302CCE3D0E0BE01AAD3AB01770F14
:10099000660B770B22E08AE03BDD6EE485E0CEDC7F
:1009A0008091620290916302BE019AD3AC01990FCB
:1009B000660B770B22E08AE02BDD60E685E0BEDC8B
:1009C00080916D02AE01481B5109052E000C660B8B
:1009D000770B22E08AE01CDDDF91CF910895C0986B
:1009E000109272020895C198109271020895C09AEF
:1009F00081E0809372020895C19A81E08093710230
:100A0000089561E081E09ADC80E690E09F938F9307
:100A1000D2DD60E681E092DC4091660250E04F5FFB
:100A20005F4F052E000C660B770B21E08AE0F0DCAF
:100A30000F900F900895CF93DF9361E083E07EDC09
:100A400080E790E09F938F93B6DD6CE383E076DCE4
:100A500022E040E050E0BA018AE0DADC68E483E0BA
:100A60006DDCCAE7D0E0DF93CF93A5DD6EE483E0D1
:100A700065DC22E040E050E0BA018AE0C9DC6AE5CA
:100A800083E05CDCDF93CF9396DD60E683E056DCA9
:100A900022E040E050E0BA018AE0BADC0F900F900B
:100AA0000F900F900F900F90DF91CF910895CF93FB
:100AB000DF9361E085E042DC8CE790E09F938F93C9
:100AC0007ADD6CE385E03ADC22E040E050E0BA01F8
:100AD0008AE09EDC68E485E031DCCAE7D0E0DF93A1
:100AE000CF9369DD6EE485E029DC22E040E050E050
:100AF000BA018AE08DDC6AE585E020DCDF93CF93E4
:100B00005ADD60E685E01ADC22E040E050E0BA0100
:100B10008AE07EDC0F900F900F900F900F900F9057
:100B2000DF91CF910895969A2FEF83EF91E02150B6
:100B300080409040E1F700C0000096980895969A92
:100B40002FEF82E597E0215080409040E1F700C010
:100B50000000969808956FDF80917102811101C0A5
:100B6000F8943DDF2FE788E391E0215080409040EA
:100B7000E1F700C0000010926A0210926902109220
:100B80006F0210926E0210927002D9DF08958FDF0B
:100B900080917202811101C0F89425DF2FE788E36C
:100BA00091E0215080409040E1F700C00000109299
:100BB00068021092670210926C0210926B021092FF
:100BC0006D02BDDF08958FEF87BB81BB14BA85BB73
:100BD00080DB54DB81EE8DBD8CE78CBD1FBC85E0D6
:100BE0008EBD84E089BF2FEF80E792E021508040E6
:100BF0009040E1F700C000001EDF59DF02DFD1E0C6
:100C0000C0E0FFDE9A9913C02FEF80E792E02150F9
:100C100080409040E1F700C000009A9908C083DF4F
:100C2000909166028D2F91118C2F80936602989976
:100C300022C08091660281111EC02FEF80E792E0F2
:100C4000215080409040E1F700C00000989913C007
:100C50006ADF80916A02815F80936A0280916A02F2
:100C60008E3210F0C0936A0280916A02882319F0D4
:100C700012DEBDDE7894999922C0809166028111BE
:100C80001EC02FEF80E792E0215080409040E1F7B6
:100C900000C00000999913C046DF809169028F5F00
:100CA00080936902809169028C3010F0C0936902D0
:100CB00080916902882319F0EEDD99DE7894989985
:100CC00022C0809166028130F1F42FEF80E792E03C
:100CD000215080409040E1F700C00000989913C077
:100CE00022DF80916802815F8093680280916802B0
:100CF0008E3210F0C093680280916802882319F048
:100D00001CDE7ADE7894999922C080916602813047
:100D1000F1F42FEF80E792E0215080409040E1F71E
:100D200000C00000999913C0FEDE809167028F5FBA
:100D300080936702809167028C3010F0C093670245
:100D400080916702882319F0F8DD56DE789499992E
:100D500016C02FEF80E792E0215080409040E1F7ED
:100D600000C0000098990BC0DEDE80916602811100
:100D700001C0F1DE80916602813009F408DF8091C4
:100D80007202813091F487DD90916F0280916A0246
:100D900098130BC090916E0280916902981305C060
:100DA000809170028B3309F4D6DE8091710281301C
:100DB00009F027CFC2DD90916C02809168029813F0
:100DC00020CF90916B028091670298131ACF809187
:100DD0006D028B3309F015CFDADE13CF5058BB27E5
:100DE000AA270ED0E0C0D1D030F0D6D020F031F418
:100DF0009F3F11F41EF4C6C00EF4E095E7FBBCC0A3
:100E0000E92FE2D080F3BA176207730784079507CA
:100E100018F071F49EF5FAC00EF4E0950B2EBA2F7F
:100E2000A02D0B01B90190010C01CA01A0011124F0
:100E3000FF27591B99F0593F50F4503E68F11A169C
:100E4000F040A22F232F342F4427585FF3CF46952D
:100E500037952795A795F0405395C9F77EF41F164F
:100E6000BA0B620B730B840BBAF09150A1F0FF0F19
:100E7000BB1F661F771F881FC2F70EC0BA0F621F05
:100E8000731F841F48F4879577956795B795F795F5
:100E90009E3F08F0B3CF9395880F08F09927EE0F87
:100EA00097958795089598D088F09F5790F0B92F1F
:100EB0009927B751A0F0D1F0660F771F881F991FAF
:100EC0001AF0BA95C9F712C0B13081F09FD0B1E0E5
:100ED00008959CC0672F782F8827B85F39F0B93FF5
:100EE000CCF3869577956795B395D9F73EF49095B1
:100EF0008095709561957F4F8F4F9F4F0895E8942F
:100F000009C097FB3EF490958095709561957F4F51
:100F10008F4F9F4F9923A9F0F92F96E9BB279395FF
:100F2000F695879577956795B795F111F8CFFAF40F
:100F3000BB0F11F460FF1BC06F5F7F4F8F4F9F4F40
:100F400016C0882311F096E911C0772321F09EE89E
:100F5000872F762F05C0662371F096E8862F70E004
:100F600060E02AF09A95660F771F881FDAF7880FDE
:100F70009695879597F9089597F99F6780E870E0AF
:100F800060E008959FEF80EC089500240A941616FF
:100F9000170618060906089500240A941216130667
:100FA000140605060895092E0394000C11F48823F5
:100FB00052F0BB0F40F4BF2B11F460FF04C06F5F11
:100FC0007F4F8F4F9F4F089557FD9058440F551FE7
:100FD00059F05F3F71F04795880F97FB991F61F0BB
:100FE0009F3F79F087950895121613061406551F32
:100FF000F2CF4695F1DF08C0161617061806991F9E
:10100000F1CF86957105610508940895E894BB2792
:1010100066277727CB0197F908950BD0C4CFB5DFAA
:1010200028F0BADF18F0952309F0A6CFABCF112432
:10103000EECFCADFA0F3959FD1F3950F50E0551F77
:10104000629FF001729FBB27F00DB11D639FAA271D
:10105000F00DB11DAA1F649F6627B00DA11D661F6C
:10106000829F2227B00DA11D621F739FB00DA11D8D
:10107000621F839FA00D611D221F749F3327A00D47
:10108000611D231F849F600D211D822F762F6A2FE3
:1010900011249F5750408AF0E1F088234AF0EE0F68
:1010A000FF1FBB1F661F771F881F91505040A9F775
:1010B0009E3F510570F060CFAACF5F3FECF3983EA2
:1010C000DCF3869577956795B795F795E7959F5FDC
:1010D000C1F7FE2B880F911D9695879597F9089576
:1010E00097FB072E16F4009406D077FD08D02DD07C
:1010F00007FC05D03EF4909581959F4F089570951B
:1011000061957F4F0895A1E21A2EAA1BBB1BFD011A
:101110000DC0AA1FBB1FEE1FFF1FA217B307E407D6
:10112000F50720F0A21BB30BE40BF50B661F771F2E
:10113000881F991F1A9469F760957095809590950E
:101140009B01AC01BD01CF010895AA1BBB1B51E15E
:1011500007C0AA1FBB1FA617B70710F0A61BB70B27
:10116000881F991F5A95A9F780959095BC01CD01CC
:061170000895F894FFCF82
:10117600504F52542073656C6563746564203D005E
:101186003C54696D657220313E003A003C54696DED
:10119600657220323E00000000000000002F0000B3
:1011A6000007000700147F147F14242A7F2A1223C5
:1011B6001308646236495522500005030000001CDE
:1011C6002241000041221C0014083E081408083E73
:1011D60008080000A0600008080808080060600011
:1011E6000020100804023E5149453E00427F40005F
:1011F60042615149462141454B311814127F10274F
:10120600454545393C4A4949300171090503364986
:10121600494936064949291E003636000000563629
:10122600000008142241001414141414004122145E
:10123600080201510906324959513E7C1211127CAD
:101246007F494949363E414141227F4141221C7F27
:10125600494949417F090909013E4149497A7F08BF
:1012660008087F00417F41002040413F017F08146C
:1012760022417F404040407F020C027F7F040810DD
:101286007F3E4141413E7F090909063E4151215EAB
:101296007F09192946464949493101017F01013F24
:1012A6004040403F1F2040201F3F4038403F6314CE
:1012B60008146307087008076151494543007F41D8
:1012C600410055AA55AA550041417F00040201027A
:1012D6000440404040400003050000205454547828
:1012E6007F484444383844444420384444487F388E
:1012F60054545418087E09010218A4A4A47C7F083B
:1013060004047800447D40004080847D007F1028DE
:10131600440000417F40007C041804787C080404E3
:10132600783844444438FC2424241818242418FC0F
:101336007C080404084854545420043F4440203C8C
:101346004040207C1C2040201C3C4030403C44282F
:101356001028441CA0A0A07C4464544C4400107C7B
:1013660082000000FF000000827C100000060909D0
:0213760006006F
:00000001FF
